:020000040800F2
:10000000600D0020BD02000815430008A53C000853
:1000100011430008FD0D00084552000800000000D3
:100020000000000000000000000000008144000803
:10003000310E000800000000094400088544000853
:10004000D7020008D7020008D7020008D70200082C
:10005000D7020008D7020008D7020008D70200081C
:10006000D7020008D7020008D7020008010E0008D6
:100070000D0E0008190E0008250E0008D702000812
:10008000D702000800000000D7020008D7020008CD
:10009000D7020008D7020008D7020008D7020008DC
:1000A000D7020008D7020008D7020008D7020008CC
:1000B000D7020008D7020008D7020008D7020008BC
:1000C000D7020008D7020008D7020008D7020008AC
:1000D000D7020008D7020008D702000839520008EA
:1000E000D7020008D7020008D7020008D70200088C
:1000F000D7020008D7020008D7020008000000005D
:1001000000000000D702000800000000D70200082D
:10011000E9450008000000009D440008A9440008CB
:10012000D7020008D7020008D7020008D70200084B
:10013000D70200080000000000000000D7020008FD
:10014000D7020008D70200080000000000000000ED
:10015000000000000000000000000000000000009F
:10016000000000000000000000000000D7020008AE
:10017000D70200080000000000000000000000009E
:1001800000000000D702000800000000000000008E
:10019000000000000000000000000000000000005F
:1001A0000000000000000000D7020008D70200088D
:1001B000D7020008D7020008D7020008000000009C
:1001C00000000000D702000800000000000000004E
:1001D000D7020008D702000800F002F800F05FF82C
:1001E00014A696E8000CB244B344DA4501D100F0FD
:1001F00056F8BAE80F000FA696E83000A5EB040504
:1002000004EB0607AAEB0704A7F101074FEA15154F
:100210004FEA3414A4F10104AC4201D300F03FF8DA
:1002200013F0010F18BFFB1A43F0010300F001F8AF
:10023000DBE71847985C0000B85C0000103A24BF68
:1002400078C878C1FAD8520724BF30C830C144BF3B
:1002500004680C6070470000704700000023002411
:1002600000250026103A28BF78C1FBD8520728BFC6
:1002700030C148BF0B607047662905F0B385002088
:1002800070471FB505F0A1FD00F0C0FB0400002081
:10029000002105F00DFDE0601FBD10B510BD00F0A0
:1002A000B5FC1146FFF7EDFF04F0CEFF00F0D3FCE4
:1002B00003B4FFF7F2FF03BC00F014FD09488047C8
:1002C00009480047FEE7FEE7FEE7FEE7FEE7FEE738
:1002D000FEE7FEE7FEE7FEE704480549054A064B50
:1002E0007047000089440008D90100086007002019
:1002F000600D0020600900206009002053EA020C14
:1003000000F069802DE9F04B4FF00006002B1FBF75
:10031000B3FA83F503FA05F424FA05F65E4012BF3A
:100320001643B2FA82F502FA05F4C5F120051EBFA4
:1003300022FA05FC44EA0C04203556EA044C4FEA44
:10034000144418BF641C4FF000084FF0000990429D
:1003500071EB030C39D3002919BFB1FA81F701FA07
:1003600007F6B0FA80F700FA07F6C7F120071EBFBC
:1003700020FA07FC46EA0C062037B6FBF4FCA7EB94
:100380000507103F07F01F0BCBF120062CFA06F6ED
:100390000CFA0BFB44BFB3460026202FA4BF5E46D9
:1003A0004FF0000B5BEA060C08BF4FF0010B19EB96
:1003B0000B0948EB0608ABFB027C06FB02CC0BFBEF
:1003C00003CCC01B71EB0C01C1E70B460246414652
:1003D0004846BDE8F08B13B5084318BF4FF0FF3017
:1003E0000146AFF30080BDE81C4070470FB41CB558
:1003F000074B06AA7B4469460090059800F0EDFA89
:100400000020694600F0FCFA1CBC5DF814FB0000FB
:10041000090600002DE9F0474FF0000A894604461E
:10042000C0F820A02046E1688847002876D025281B
:1004300006D0D4E901219047206A401C2062F1E7F0
:10044000E168204600258847C4F81CA0064600271E
:10045000C4F818A02A2E09D0304605F021FC38B384
:1004600004EB8708303EC8F8186019E059F8041BFF
:10047000204604EB87029161E1688847012F064618
:1004800018D1E069002820DA25F020051DE0D8F811
:10049000180000EB800006EB40003038C8F8180068
:1004A0002046E1688847064605F0FAFB0028EED1B1
:1004B000012F0AD02E2E08D12046E16888477F1CE4
:1004C0000646022F45F02005C4DBA069002803DAA8
:1004D000404245F00105A061E80701D025F0100574
:1004E000B6B1A6F14100192802D8203645F40065BE
:1004F0004A463146204625604D46FFF7BDFE58B1BD
:10050000012806D0ED1D25F0070000F1080989E754
:1005100004E005F1040985E730468AE7206ABDE872
:10052000F08710B5431C02E010F8011B71B1810780
:10053000FAD14FF0013202C88C1A8C4314EAC2116E
:10054000F9D0C01A0A0603D0C01E10BDC01A10BDD3
:100550000A0401D0801E10BD0902FCD0401E10BD4F
:100560004FF0000200B5134694469646203922BF4C
:10057000A0E80C50A0E80C50B1F12001BFF4F7AF97
:10058000090728BFA0E80C5048BF0CC05DF804EB79
:10059000890028BF40F8042B08BF704748BF20F8E7
:1005A000022B11F0804F18BF00F8012B70477047E5
:1005B000704770472DE9FF4F0C461E464FF0FF373E
:1005C0008BB0D2E90001DDF860800A908A46C1F361
:1005D0000A5505B93D46002108464FF00000BAF122
:1005E000000F00F4400005DA00EB80004FF44001FA
:1005F00001EA50004FEA9059B9F1010F00DDB94608
:100600000A9850EA4A000ED044F61050A5F2FF3581
:1006100045432F14B8F1000F1ED07542291E1EDD70
:10062000C9F100021CE0B8F1010F4FF0000001D049
:10063000302103E0F24305E02154401CB042FBDBD3
:1006400030460022002121540B99C1F80880C1E9ED
:1006500000200FB0BDE8F08FBD1B6D1CDEE74A46E1
:1006600000DA694206A800F05BFA06AB93E80700DF
:1006700003AB83E8070050460A9904F031FF8DE888
:100680000700A0F500501F3800900398002D0ADDE8
:1006900042F21F014A460844002303A9039068461A
:1006A00005F09AF909E0A0F500504A461F380023EA
:1006B00003A90390684605F0A4F98DE8070000043B
:1006C000000C03D04FF0FF30410800E01046B8F1B5
:1006D000000F03D00022009215461EE0751E05D4BF
:1006E00000F098F9303262556D1EF9D5B3460122FB
:1006F000084302D000227F1C04E02078302801D17A
:1007000000227F1E002A099784D01DE0112D07DAF0
:1007100000F080F9303262556D1C50EA0102F5D1CB
:10072000084302D00098C8B10EE00021681E05E021
:10073000235C625C63542254401E491C8142F7DBF7
:10074000AB46A81B401E0990002004F80B000B9834
:10075000099AC0F80880C0E9002B7AE711264FF00B
:10076000000857E72DE9F04F88460446D21D22F0D5
:10077000070191B0D1E90001CDE90A0105F078FA4D
:1007800002460B98C00F01D02D2007E0206881079A
:1007900001D52B2002E0202101EAC000032A0990A4
:1007A00001D0072A05DB03464146204600F078F9D0
:1007B0000BE12078800601D5E06900E00620B8F161
:1007C000650F814606D0B8F1660F18D0B8F1670FF3
:1007D00070D131E00020B9F1110F009001DB11233D
:1007E00001E009F101030AAA01A90CA8FFF7E2FE42
:1007F000DDE90C70002609F10105834647E0012080
:100800004B4600904FF000470AAA01A90CA8FFF739
:10081000D1FEDDE90DB00C995D46002610B909F155
:1008200001000D18B9EB050003D4C0F1FF3609F142
:100830000105A5EB09002BE0B9F1010F01DA4FF03A
:1008400001090020B9F1110F0090484601DD112384
:1008500000E003460AAA01A90CA8FFF7ABFEDDE9F8
:100860000C704D4600268346207800070AD4AB451D
:1008700000DA5D4601A8012D04DD411911F8011CC3
:10088000302907D04F4502DA17F1040F04DA0120AE
:1008900082460FE06D1EEEE7002F02DCED1B3E44AA
:1008A00003E0781CA84200DD7D1CB81B00F1010AA2
:1008B0004FF000472078000703D4AA4501DB4FF032
:1008C000FF3A0021B7F1004F0DF143088DF84310B6
:1008D00024D002202B23002F01DA7F422D230A216E
:1008E000021EA0F1010000DC5FB197FBF1FC97FB59
:1008F000F1F201FB1C7C17460CF1300C08F801CD1D
:10090000EEE7A8F1010003702188090501D5452112
:1009100000E06521A0F1010800F8011C09980FA969
:10092000A1EB0807FF1D00B10120411901EBEA709E
:10093000A1693844081A401EA0612078C00602D47C
:100940002046AFF30080099828B1D4E901219047EF
:10095000206A401C20622078C00622D52046AFF3D2
:1009600000801EE0002E04DBB34502DD01A8805D9F
:1009700000E03020D4E901219047206A401C206229
:10098000761CAAF101005FEA000A0AD100F03EF8E5
:10099000C0680168405CD4E901219047206A401C8E
:1009A0002062281EA5F10105DCDC07E0D4E9012165
:1009B00018F8010B9047206A401C2062381EA7F1EE
:1009C0000107F3DC2046AFF30080032011B041E6BD
:1009D00001694A1C02610878704700B58FB0CDE903
:1009E00001310021059105497944CDE903101146F3
:1009F0006846FFF70FFD0FB000BD0000E5FFFFFFE9
:100A00000A6802F8010B0A6070470000004870474E
:100A10003000002030B5B0F10A0271F100034FEA56
:100A2000900E4EEA817EB0EB0E0061EB91014FEA31
:100A3000101E4EEA017E10EB0E0041EB11114FEA41
:100A4000102E4EEA016E10EB0E0041EB11214FEA21
:100A5000104E4EEA014E10EB0E0041EB11414018D2
:100A600041F100014FEAD00040EA41704FEAD10164
:100A70004FEA810444EA907410EB800544EB0104D2
:100A80006D1944EB0404521BA3414FF0000348BF0F
:100A90000A3200D530BD401C41F1000130BD0000DC
:100AA0002DE9F0411F46044603260168072A01F498
:100AB000006004DB08B116A505E016A503E008B147
:100AC00015A500E015A521F010002060A069C01E4A
:100AD000A0610FB1401EA0612046AFF300804FB16E
:100AE000D4E9012138469047206A401C2062C01C8E
:100AF000206206E0206AFAE7D4E9012115F8010B2B
:100B00009047761EF8D22046AFF30080BDE8F08112
:100B10004E414E006E616E00494E4600696E6600A1
:100B20002DE9F047814616468AB0354878440DC80D
:100B30008DE80D0032487844801C03AC0DC884E871
:100B40000D0041F69B300844372190FBF1F290FBF9
:100B5000F1F5A5F1800501FB12041B3C02D56442AE
:100B6000012000E00020DFF898A080460027FA442A
:100B7000AAF1BE0A0EE0E0070AD03246684607EB4B
:100B8000470101230AEB810104F03BFF8DE80700D8
:100B900064107F1C002CEED1194F7F44AE3F19E04A
:100BA000E80715D007EB04100DF1180A90E80E00C5
:100BB0008AE80E00C068F04201D1981908903246C8
:100BC000012306A903A804F01CFF03AB83E8070078
:100BD0006D10641C002DE3D14FF0010332466946CD
:100BE000B8F1000F03A802D004F0F6FE01E004F013
:100BF00008FFC9E90001C9F808200AB0BDE8F0877C
:100C00003453000000487047100000207546FFF77D
:100C1000F9FFAE4605006946534620F007008546B9
:100C200018B020B5FFF758FBBDE820404FF0000694
:100C30004FF000074FF000084FF0000BAC46ACE857
:100C4000C009ACE8C009ACE8C009ACE8C00921F0B3
:100C500007018D46704710B50446AFF3008020466B
:100C6000BDE81040FFF724BB30B44FF0013C50F812
:100C7000042B51F8043BCCFA52F4D51A20D1FCB91C
:100C800050F8042B51F8043BCCFA52F4D51A17D182
:100C9000B4B950F8042B51F8043BCCFA52F4D51AED
:100CA0000ED16CB950F8042B51F8043BCCFA52F435
:100CB000D51A05D1002CDAD030BC4FF000007047B7
:100CC00029BAB1FA81F111F01801D1F12000844064
:100CD000F2D1CA40CB4012F0FF0213F0FF0330BC48
:100CE000D01A704701491820ABBEFEE7260002006B
:100CF0007047000040F2E000C2F200000A2100222A
:100D00000275C0E90021C0E90212026170470000CB
:100D10004D281DD140F2E002C2F200025368142BAC
:100D20009CBF0A3B0B609368142B9CBFC3F10A0362
:100D30004B60137D0B740A2100231375C2E9003147
:100D4000C2E9021313614D38B0FA80F040097047D0
:100D500040F2E001C2F200010A68AAB1582808BFB7
:100D6000012A17D0592808BF022A1DD0022A1FD1F4
:100D70004A6802EB820200EB4202303A4A604D3888
:100D8000B0FA80F040097047522821D04C28DAD1BF
:100D900001221EE002220023C1E900234D38B0FAEF
:100DA00080F04009704700BF03220A60002209E07A
:100DB000042A15D0032AC6D18A6802EB820200EB0E
:100DC0004202303A8A604D38B0FA80F040097047EC
:100DD00004220A604D38B0FA80F04009704700BF25
:100DE000322803D03128AED1012200E002220A7558
:100DF0004D38B0FA80F0400970470000FEE700006F
:100E000040F27C20C2F2000000F0A4B840F2DC20E6
:100E1000C2F2000000F09EB840F2BC10C2F2000026
:100E200000F098B840F21C20C2F2000000F092B826
:100E30007047000001680968496A41607047000016
:100E400010B50446016008463C2101F02BFD00204E
:100E5000C4E9010010BD0000EFF3108072B600BFBE
:100E6000FEE70000014690F82500022828D180B551
:100E70000868D1E910CE8A6C036823F00E03036082
:100E8000136823F480731360026822F00102026089
:100E90000EF01F00012202FA00F0CCF80400D1E9A4
:100EA00013205060486D30B1026822F480720260F5
:100EB000D1E9160242600020BDE8804003E000BF97
:100EC0000420C8630120012281F82520002281F836
:100ED0002420704790F82510022931D180B501688F
:100EE000D0E910CE826C0B6823F00E030B600B6808
:100EF00023F001030B60116821F4807111600EF082
:100F00001F02012101FA02F2CCF80420D0E91332C9
:100F10005A60426D32B1136823F480731360D0E9D4
:100F20001623536080F82510826B002180F824106E
:100F30000AB190470021BDE880400846704700BFD5
:100F40000421C1630121002280F8251080F82420AB
:100F500008467047B0B5D0E910C30268DCF800104D
:100F600003F01F030424D2F800E09C400C4218BF99
:100F70001EF0040520D102249C400C4218BF1EF034
:100F8000020529D1D940090714D51EF0080108BF70
:100F9000B0BD116821F00E011160012101FA03F2C8
:100FA000CCF80420C16380F82510416B002280F842
:100FB000242069B9B0BD00BF1168890603D4116847
:100FC00021F004011160CCF80440016B0029F1D03C
:100FD000BDE8B040084700BF1168890606D4116813
:100FE00021F00A011160012180F82510CCF804409D
:100FF000C16A0022002980F82420E9D1DAE7000044
:1010000000284FF0010100F085802DE9F04740F203
:10101000000CC4F2020C03684FF6F8320CF5816E36
:10102000CBF6FD72734538BF02F580624CF6CD44B5
:101030001A44CCF6CC44A2FB042903F0FC02A2F132
:101040000802A2FB04280CF580646FF00305D0E9C8
:1010500002A607693CBF0024C4F2020405EA990510
:10106000C0E91045022480F825401C6847F6F0725C
:1010700024EA0202324346693A4387693243C66929
:101080003A43076A32433A4342EA0A021A600CF5CD
:101090000262734538BF0CF50062AB180CF50862AC
:1010A000C264C8F3041201FA02F540F68401BAF5ED
:1010B000804FC4F202018364056505D100224260BD
:1010C0001A600D6018E000BF4268D4B2013A032AEA
:1010D0004FF000021C600D600ED8631E01EB830709
:1010E00047F87C2F03F01F0201239340C1F8C03062
:1010F000BC313A4602E000BF00210023C0E91521BF
:1011000000210122C365C16380F8252080F82410E6
:10111000BDE8F0470846704790F824C0BCF1010FC5
:1011200047D04FF0010C80F824C090F825C0BCF1E6
:10113000010F3BD12DE9F0414FF0020C80F825C0A2
:101140004FF0000CC0F83CC0D0F800C000F14C0ECD
:101150009EE83040DCF80060BEF1000F26F001068A
:10116000CCF8006065601CBFD0E916456560D0E929
:101170001056012706F01F06846807FA06F6D0F815
:1011800030806E60CCF804300B46102C04BF134640
:101190000A46CCF80830CCF80C20DCF80010B8F186
:1011A000000F09D041F00E010EE000BF002180F8D1
:1011B00024100220704700BF21F00401CCF8001079
:1011C000DCF8001041F00A01CCF80010806C0168D6
:1011D000C90303D5016841F480710160BEF1000FBD
:1011E00005D0DEF8000040F48070CEF80000DCF896
:1011F000000040F00100CCF800000020BDE8F081C4
:101200002DE9F04F83B00E68002E00F0CF8000F182
:10121000200241F2004C009200F13847C4F6000C65
:1012200006224FEAB725604508BF0522052D38BFC5
:101230004FEAB722002500274FF0000801920AE08C
:101240000E6808F1010836FA08F207F1020705F105
:10125000040500F0AB80012202FA08FE16EA0E092E
:10126000EED0D1F804C003220CF0030BABF1010661
:1012700002FA07F4012E6FEA040A11D88468CE68D6
:1012800004EA0A04BE4034438460446824EA0E063B
:10129000CCF3001404FA08F42643466006E000BFCD
:1012A000BBF1030F02D14FF0030B21E0C6688C683D
:1012B00006EA0A06BC402643BBF1020FC66017D1FE
:1012C0006FF00302009B02EA580605F01C020F248F
:1012D00053F806C004FA02FE0C692CEA0E0C04FA5C
:1012E00002F242EA0C029A51D1F804C00CF0030B4E
:1012F00002680BFA07F302EA0A021A431CF4403FA1
:1013000002609DD041F26003C4F202031A6840F209
:10131000004E42F001021A601A68C4F2010E02F097
:1013200001020292029A28F003024FF6084C72441E
:10133000CFF6FF7C52F80C3005F00C060F24B440B9
:10134000A343019C04FA06F6334342F80C30DEF85E
:1013500008204B6842EA090640F20C4CDC0258BFF8
:1013600022EA0906CEF80860C4F2010CDCF800207D
:101370009C0242EA090658BF22EA0906CCF800603E
:10138000DEF804209C0342EA090658BF22EA090657
:10139000CEF80460DEF80020DB0342EA090658BFFD
:1013A00022EA0906CEF800604AE700BF03B0BDE8B4
:1013B000F08F00001823002A08BF2823C15070476F
:1013C00040F25C70C2F200000068704740F200001A
:1013D00040F25C71C2F20000C2F2000140680A688B
:1013E000104408607047000080B5032000F08CF8BE
:1013F0000F2000F009F800281CBF012080BD00F07C
:101400002BF8002080BD0000B0B540F20005C2F20C
:1014100000056968F1B1044640F20800C2F200001C
:101420004FF47A720068B2FBF1F1B0FBF1F000F01A
:101430009BFE01460F2C4FF001000AD8002918BF6F
:10144000B0BD4FF0FF302146002200F031F80020FF
:101450002C60B0BD0120B0BD82B041F25800C4F292
:101460000200816841F001018160816801F00101A1
:1014700001910199016841F080510160006800F01C
:1014800080500090009802B000F0D6B8002848BF05
:10149000704700F01F01012202FA01F11C2202EA4A
:1014A000D0004EF20012CEF20002815070470000D0
:1014B00010B54EF60C5CCEF2000CDCF80030C3F335
:1014C000022E8EF00704042C28BF0424BEF103036F
:1014D0004FF0FF3E0EFA04F438BF0023A1439940B9
:1014E0000EFA03F39A43114300F00F0200F1604338
:1014F0000901043A03F564436244002848BF02F13D
:101500000C03197010BD00004EF60C51CEF2000114
:101510000A684FF6FF031A4060F30A2242F0806027
:1015200040F0FD700860704747F21401C4F20001FA
:1015300051F8142CB0F5007F3CD0002874D1C86E4F
:1015400002F4C06220F48070B2F5806FC8662FD1BB
:1015500051F8140C012262F34A2041F8140C40F2B5
:101560000800C2F200000068322250434DF6836248
:10157000C4F21B32A0FB0202900C00BF0A685205A5
:1015800011D5421C0FD00A6852050CD558B10A6813
:10159000520508D5012806D00A68520503D502284D
:1015A000A0F10400EAD10868400544BF0320704759
:1015B00000207047C86E02F4C06240F48070B2F53B
:1015C000806FC866F4D151F8140C012262F34A20EE
:1015D00041F8140C40F20800C2F200000068322208
:1015E00050434DF68362C4F21B32A0FB0202900C02
:1015F0000A68520511D5421C0FD00A6852050CD555
:1016000058B10A68520508D5012806D00A68520563
:1016100003D50228A0F10400EAD10868400544BFC0
:1016200003207047C4E700BF022060F34A2241F85C
:10163000142C00207047000047F20800C4F200009C
:10164000016841F480410160704700002DE9F041DC
:1016500082B00446807841F288060007C4F2020690
:1016600002D400202FE000BF56F8300C5FEAC0081B
:101670000BD456F8300C40F0805046F8300C56F839
:10168000300C00F080500190019847F20007C4F23E
:101690000007386840F480703860FFF791FE054617
:1016A0003868C00500F1D680FFF78AFE401B02288B
:1016B000F6D90320B8F1000F05D456F8301C21F0FC
:1016C000805146F8301C2168CA0713D18A0719D403
:1016D0004A071FD40A0725D48A062BD44A0631D4D8
:1016E0000A0637D4CA053DD48A0543D44A0549D4ED
:1016F00057E000BF3268636822F003021A43326089
:101700008A07E5D53268A36822F00C021A433260DA
:101710004A07DFD53268E36822F030021A433260AC
:101720000A07D9D53268236922F0C0021A43326011
:101730008A06D3D53268636922F440621A43326064
:101740004A06CDD53268A36922F440521A4332606A
:101750000A06C7D53268E36922F440421A43326070
:10176000CA05C1D53268236A22F440321A43326076
:101770008A05BBD53268636A22F440221A4332607C
:101780004A050ED53268A36A22F440121A43B3F513
:10179000801F326005D156F87C2C42F4801246F846
:1017A0007C2C0A050ED53268E36A22F440021A4303
:1017B000B3F5800F326005D156F87C2C42F48012CC
:1017C00046F87C2CCA040ED53268236B22F0407296
:1017D0001A43B3F1807F326005D156F87C2C42F475
:1017E000801246F87C2C8A040ED53268636B22F096
:1017F00040621A43B3F1006F326005D156F87C2C79
:1018000042F4801246F87C2C4A040ED53268A36B51
:1018100022F040621A43B3F1006F326005D156F8EE
:101820007C2C42F4801246F87C2C09040ED53168D9
:10183000E26B21F040511143B2F1805F316005D17C
:1018400056F87C1C41F4803146F87C1C02B0BDE89F
:10185000F08100BFB06810F4407010D0216C884255
:101860000BD0B068B16820F4407041F48031B160B1
:10187000B16821F48031B160B060C0070CD1B068AC
:10188000216C20F440700843B0600020B8F1000FD4
:101890003FF519AF11E700BFFFF792FD054641F292
:1018A000883700BFB0688007E9D4FFF789FD401B87
:1018B000B842F7D9FDE600002DE9F047002863D0D3
:1018C00042F2000AC4F2020A0446DAF800000D46A9
:1018D00000F00F0081420CD9DAF8000020F00F0070
:1018E0002843CAF80000DAF8000000F00F00A84210
:1018F0004AD1216841F20808C807C4F2020803D19E
:10190000880740F1D080B5E0606858F8082C0228BC
:1019100038D003283CD1920136D5D8F80420D8F825
:10192000043042F20046C3F3031302F00302D8F876
:1019300004700133C0F2F406032A04BF41F200260A
:10194000C0F27A06B6FBF3F2D8F80430C7F30627E4
:101950007A43C3F34163022707EB4303B2FBF3F27D
:101960004BF20043C0F2C4439A4259D9D8F8002040
:1019700012F0F00F49D0890752D5A16800294FD144
:1019800043E000BF910305D40120BDE8F08700BF0C
:101990005105F9D5D8F8001001F00C0104293FD009
:1019A000D8F8001001F00C01082939D0D8F800103F
:1019B00001F00C010C2933D1D8F80410D8F8042018
:1019C00042F20047C2F3031201F00301D8F80430D9
:1019D0000132C0F2F407032904BF41F20027C0F22C
:1019E0007A07B7FBF2F1D8F80420C3F30623594372
:1019F000C2F34162022303EB4202B1FBF2F14BF26C
:101A00000042C0F2C44291420AD9D8F8001008221C
:101A100062F307114FF00109C8F8001002E000BF9F
:101A20004FF00009D8F8001021F003010843C8F86E
:101A30000000FFF7C5FC064641F28837D8F80000E1
:101A4000616800F00C00B0EB810F07D0FFF7B8FC25
:101A5000801BB842F2D90320BDE8F08721688807CF
:101A600008D4B9F1000F1ED0D8F8000020F0F00023
:101A700017E000BF480705D5D8F8000040F4E06043
:101A8000C8F80000080706D5D8F80000072262F35E
:101A90000D20C8F80000D8F80000A26820F0F0007F
:101AA0001043C8F80000DAF8000000F00F0085428B
:101AB0001BD2DAF8000020F00F002843CAF800001B
:101AC000FFF77EFC064641F2883700BFDAF80000D7
:101AD00000F00F00A84207D0FFF772FC801BB8424D
:101AE000F4D90320BDE8F0872168480707D5D8F866
:101AF0000000E26820F4E0601043C8F80000080726
:101B000008D5D8F80000216920F4605040EAC100EF
:101B1000C8F80000D8F8000042F20041C0F2F40119
:101B200000F00C00042808462DD0D8F8000000F082
:101B30000C00082841F20020C0F27A0023D0D8F827
:101B4000002002F00C020C2A1CD1D8F80420D8F88E
:101B5000043002F00302C3F30313D8F80470013316
:101B6000032A08BF0146B1FBF3F0D8F80410C7F30D
:101B70000627C1F341610222784302EB4101B0FB29
:101B8000F1F000E00020D8F8001045F67C62C1F3C7
:101B90000311C0F60002515C40F2080201F01F017F
:101BA00020FA01F140F20000C2F200000068C2F227
:101BB00000021160BDE8F047FFF726BC40F20800C4
:101BC00041F20801C2F20000C4F202010068096893
:101BD00045F68C62C1F30221C0F60002515C01F0AF
:101BE0001F01C8407047000040F2080041F20801A0
:101BF000C2F20000C4F202010068096845F68C6276
:101C0000C1F3C221C0F60002515C01F01F01C840BF
:101C10007047000041F20C01C4F2020151F8040CBB
:101C200042F20042C0F2F40200F00C000428104618
:101C300008BF704751F8040C00F00C00082841F26E
:101C40000020C0F27A0025D051F8043C03F00C03C8
:101C50000C2B1CBF0020704780B5D1F800C00B686A
:101C60000CF0030CC3F3031E0B680EF1010EBCF164
:101C7000030F08BF02460968B2FBFEF0C3F3062358
:101C8000C1F341610222584302EB4101B0FBF1F084
:101C9000BDE8804070470000002804BF0120704765
:101CA0002DE9F04182B00446007841F20006C007F9
:101CB000C4F202061ED1207880073DD420780007A8
:101CC00064D42078400700F187802078800600F1F6
:101CD000D980E569002D00F04282B06800F00C0068
:101CE0000C2840F03181012D40F08E81012002B09E
:101CF000BDE8F081B06800F00C01F068082961D0FF
:101D0000032281F00C0122EA00000844B0FA80F0BE
:101D1000400957D161683068B1F5803F07D0B1F50F
:101D2000A02F40F0E38040F480203060306840F421
:101D300080303060E4E000BFB068F16800F00C0073
:101D4000042871D001F0030180F00C0081F0020141
:101D50000844B0FA80F0400966D1E1683068002993
:101D600000F0E08040F480703060FFF729FB05460A
:101D70003068400500F10A81FFF722FB401B022872
:101D8000F6D9032002B0BDE8F08100BF6169D6F842
:101D90009400002900F0948040F00100C6F89400FF
:101DA000FFF70EFB054600BFD6F8940080073FF50D
:101DB00088AFFFF705FB401B0228F5D9032002B0CE
:101DC000BDE8F081306880037FF575AF606800285A
:101DD0007FF471AF3EE000BFB06D5FEAC00808D489
:101DE000B06D40F08050B065B06D00F08050019053
:101DF000019847F20007C4F200073868C0052DD4E7
:101E0000386840F480703860FFF7DAFA054600BFA2
:101E10003868C00522D4FFF7D3FA401B0228F7D94F
:101E2000032002B0BDE8F0813068400501D5E068CC
:101E300080B17068216920F0FE4040EA0160706066
:101E400040F20000C2F200000068FFF7DDFA00284F
:101E50003FF434AF012002B0BDE8F081A168D6F8AC
:101E60009000012908D0052940F0AE8040F0040020
:101E7000C6F89000D6F8900040F00100C6F8900037
:101E8000AEE000BFA169D6F89800002900F0868076
:101E900040F00100C6F89800FFF792FA054600BF2F
:101EA000D6F8980080073FF514AFFFF789FA401B7A
:101EB00002284FF00300F3D902B0BDE8F08100BF63
:101EC00020F00100C6F89400FFF77AFA054600BF3B
:101ED000D6F8940080077FF5F4AEFFF771FA401B47
:101EE0000228F5D9032002B0BDE8F08120F480304B
:101EF00030603068002920F48020306000F0BE801F
:101F0000FFF75EFA054600BF306880033FF5D3AEA9
:101F1000FFF756FA401B6428F6D9032002B0BDE84B
:101F2000F08100BF20F480703060FFF749FA054669
:101F3000306840057FF5C2AEFFF742FA401B022829
:101F40004FF00300F4D9B7E7306820F080703060BC
:101F5000FFF736FA022D05460CD100BF306880012C
:101F600040F1B880FFF72CFA401B02284FF0030025
:101F7000F4D9A1E73068800140F1EA80FFF720FA48
:101F8000401B02284FF00300F4D995E770682169DF
:101F900020F0FE4040EA016070608FE620F0010012
:101FA000C6F89800FFF70CFA054600BFD6F898006F
:101FB00080077FF58EAEFFF703FA401B02284FF033
:101FC0000300F3D978E700BF20F00100C6F89000C5
:101FD000D6F89000002920F00400C6F890005DD0EB
:101FE000FFF7EEF9054641F2883700BFD6F89000BA
:101FF000800765D4FFF7E4F9401BB842F6D9032007
:1020000002B0BDE8F08100BFF068216A00F0030271
:102010008A427FF41FAF626A6FF00F0300F0F00195
:1020200003EB021291427FF415AFA16A00F4FE4265
:10203000B2EB012F7FF40EAFE16A00F07842B2EB11
:10204000C16F7FF407AF226B0023CFF6E07303EA82
:10205000025200F4C001A2F5001291427FF4FAAEE0
:10206000616B4FF07E4202EA016100F0C06001F155
:102070007E4188427FF4EEAE71E000BFFFF7A0F929
:10208000054600BF306880037FF515AEFFF798F96D
:10209000401B64284FF00300F4D90DE7FFF790F9D7
:1020A000054641F2883700BFD6F89000800707D573
:1020B000FFF786F9401BB8424FF00300F4D9FBE666
:1020C000B8F1000F3FF501AEB06D20F08050B06563
:1020D000FBE500BFF06848F20C01C0F29F1104F16B
:1020E000200700EA010C8ECF6FF00F00D4E90C54EA
:1020F00000EB02100022CFF6E07241EA0C0102EA86
:1021000005520843A2F500124FF07E4540EA032035
:1021100005EA0465104305F17E4540EAC76028439F
:10212000F060306840F080703060F06840F080709F
:10213000F060FFF745F90446306880010FD4FFF7DF
:102140003FF9001B02284FF00300F5D9B4E600BFA9
:10215000F0684FF6FC71CFF6EE610840F0600020A9
:1021600002B0BDE8F0810000411E0020B0EB116F0D
:102170001CBF012070474EF21002CEF200025160E7
:102180004EF62351CEF20001F0230B700721906030
:1021900011607047704700007047000070470000F2
:1021A00070470000704700007047000090F83C2026
:1021B000012A4FF002024AD070B580F83D20026833
:1021C00043F2004C54689368C4F2010C42F6004E8E
:1021D0006245C4F2010E01D0724503D14D6824F46A
:1021E00070042C434FF68F75CFF6FF550E682C40C8
:1021F00042F6FF35C4F201053443AA4254600FDCB5
:10220000B2F1804F16D040F20046C4F20006B2424E
:1022100010D040F60006C4F20006B2420AD00EE02A
:10222000724507D044F20006C4F20106B24201D062
:10223000624504D1896823F080031943916001212C
:10224000002280F83D1080F83C20BDE87040104628
:102250007047000070470000002804BF012070474D
:1022600010B5044690F83D0028B9002084F83C00E1
:10227000204600F023F8022084F83D002068211D4C
:1022800002F018F9012084F8480084F83E0084F830
:102290003F0084F8400084F8410084F8420084F84C
:1022A000430084F8440084F8450084F8460084F82C
:1022B000470084F83D00002010BD000080B582B0CA
:1022C000006843F6FF71C4F20101884224DC41F248
:1022D0000001C4F20001884236D041F20041C4F24C
:1022E0000001884255D141F25800C4F20200016851
:1022F000002241F0200101600068002100F0200070
:10230000019001983720FFF7D3F8372002B0BDE8DD
:102310008040FFF7BBB800BF44F20001C4F20101E6
:10232000884229D044F60001C4F20101884230D12C
:1023300041F25800C4F20200816841F480218160BA
:10234000806800F4802022E041F25800C4F20200CC
:102350000168002241F0100101600068002100F0D6
:102360001000019001983620FFF7A2F8362002B045
:10237000BDE88040FFF78AB841F25800C4F202007D
:10238000816841F480318160806800F48030019080
:10239000019802B080BD000090F83D10012919D1CC
:1023A000022180F83D10016842F6FF30C4F20100BE
:1023B000814211DCB1F1804F20D040F20040C4F2E4
:1023C000000081421AD040F60000C4F200008142B1
:1023D00014D020E00120704742F60040C4F2010012
:1023E00081420BD044F20000C4F20100814205D0CA
:1023F00043F20040C4F2010081420CD188680722F8
:10240000C0F201020240062A4FF00000E3D0B2F50C
:10241000803F08BF7047086840F001000860002056
:102420007047000090F83D1001291DD1022180F86D
:102430003D10016842F6FF32C868C4F201029142C1
:1024400040F00100C86011DCB1F1804F20D040F2B3
:102450000040C4F2000081421AD040F60000C4F2ED
:102460000000814214D020E00120704742F6004075
:10247000C4F2010081420BD044F20000C4F201001A
:10248000814205D043F20040C4F2010081420CD1E8
:1024900088680722C0F201020240062A4FF00000BD
:1024A000E3D0B2F5803F08BF7047086840F00100F4
:1024B000086000207047000090F83C20012A4FF08F
:1024C000020200F0AC8080B580F83D20D0F800C05A
:1024D0008822DCF80830CFF6CE721A40CCF80820FB
:1024E0000B686F2B10DD1F22C0F21002934237DC05
:1024F000B3F5005F6EDA702B00F0B680B3F5805F45
:1025000000F08480D8E000BF2F2B35DD4F2B39DC65
:10251000302B6FD0402B40F0CF80D1F804E0C96859
:10252000DCF82030DCF8202022F00102CCF820205A
:10253000DCF8182022F0F00242EA011123F00A022E
:1025400042EA0E02CCF81810CCF82020DCF8081073
:102550004FF68872CFF6CF721140473154E000BF7A
:102560003F21C0F210018B423ADC2021C0F2100161
:102570008B423FD0302139E0E3B3102B3AD0202BEF
:1025800038D099E0502B4DD0602B40F09580D1F899
:1025900004E0C968DCF82030DCF8202022F01002CA
:1025A000CCF82020DCF8182022F4704242EA0131F5
:1025B00023F0A00242EA0E12CCF81810CCF820202A
:1025C000DCF808104FF68872CFF6CF7211406731F1
:1025D0001AE000BF5CD0B3F1101F0BD06CE000BF5D
:1025E0004021C0F210018B4204D07021C0F21001D2
:1025F0008B4261D1DCF808104FF68872CFF6CF72AB
:102600001140194341F00701CCF8081000220121C4
:1026100080F83D10002180F83C10BDE88040104655
:10262000704700BFD1F804E0C968DCF82030DCF85E
:10263000202022F00102CCF82020DCF8182022F023
:10264000F00242EA011123F00A0242EA0E02CCF83B
:102650001810CCF82020DCF808104FF68872CFF65E
:10266000CF7211405731CFE7D1E901E3C968DCF8F7
:10267000082043EA0E0322F47F4243EA012111437A
:10268000CCF80810DCF8081041F07701BCE700BF77
:10269000D1E901E3C968DCF8082043EA0E0322F41B
:1026A0007F4243EA01211143CCF80810DCF80810FE
:1026B00041F48041A8E700BF0122A8E7002804BF39
:1026C000012070472DE9F047044690F83D000D4683
:1026D00028B9002084F83C00204600F04BF8022086
:1026E00084F83D0020684BF6F8728168CFF6FE72E0
:1026F00011408160211D01F0DDFE20684FF6FF785A
:1027000081688269D0F820C0D5E9003ED5E9026A27
:1027100043EA0109AB6922EA080246EA03234FF6BD
:10272000FC46B343D5E9076742EA0A0229691A431E
:1027300042EA062242EA01112CF0AA026B6942EA3F
:102740000E0241EA073142EA0312C0F808908161A3
:102750000262012084F8480084F83E0084F83F00BB
:1027600084F8440084F8450084F83D000020BDE86A
:10277000F087000080B586B0006840F2FF71C4F2B7
:10278000000188424FF000010591CDE90311CDE928
:10279000011121DCB0F1804F40D040F20041C4F281
:1027A000000188427CD141F24C00C4F20200C168B1
:1027B00041F00201C160C16801F00201009100997D
:1027C000016841F001010160006800F00100009023
:1027D00000984FF0904057E040F60001C4F200012D
:1027E000884237D042F60041C4F20101884257D1F5
:1027F00041F24C00C4F2020041694FF4407241F4CE
:1028000000614161416901F4006100910099016832
:1028100041F0010101600068062113E041F24C0023
:10282000C4F20200C168032241F00101C160C16825
:1028300001F0010100910099016841F0010101607E
:102840000068012100F00100009000984FF09040D6
:102850001CE000BF41F24C00C4F20200C16841F02C
:102860000401C160C16801F0040100910099016890
:1028700041F002010160006800F002000090009841
:1028800040F20040C4F600000221C0220192022260
:1028900002920022059101A9CDE90322FEF7B0FCC6
:1028A00006B080BD80B590F83E2090F83F3090F89B
:1028B00044E090F845C004290AD0B9B9012A4FF084
:1028C000010208BFBEF1010F34D0104680BD00BF29
:1028D000012B4FF0010208BFBCF1010FF5D102211D
:1028E00080F83F1080F8451000681EE0012A4FF084
:1028F000010208BF012BE8D1BEF1010FE5D1BCF107
:10290000010FE2D1022280F83E2080F83F2080F8BB
:10291000442080F8452091B10068016A21F001014E
:102920000162016A41F00101016210216FF01002A1
:1029300009E000BF022180F83E1080F844100068D2
:1029400001216FF00102036A1A400262026A114318
:1029500001620168002241F001010160104680BD62
:1029600070470000F0B581B004460068C56806698C
:10297000B10717D515F0020114D06FF00201016103
:10298000012121778069800704D02046FFF7E8FF06
:1029900006E000BF204600F0CBF8204600F0CAF861
:1029A00000202077700719D515F0040016D0206894
:1029B0006FF00401016102212177806910F4407FEA
:1029C00004D02046FFF7CCFF06E000BF204600F011
:1029D000AFF8204600F0AEF800202077300717D57A
:1029E00015F0080014D020686FF00801016104217F
:1029F0002177C069800703D02046FFF7B1FF05E0CB
:102A0000204600F095F8204600F094F8002020774A
:102A1000F00619D515F0100016D020686FF01001DF
:102A2000016108212177C06910F4407F04D020465D
:102A3000FFF796FF06E000BF204600F079F8204639
:102A400000F078F800202077F00718BF15F001009B
:102A500006D020686FF001010161204600F06CF89B
:102A600016F4025F05F0800718BF002F02D1F005B1
:102A700009D410E020686FF4025101612046FFF78D
:102A80008BFBF00507D537B120686FF480710161C9
:102A90002046FFF77FFB700609D515F0400006D0F1
:102AA00020686FF040010161204600F089F9B0060E
:102AB00009D515F0200006D020686FF020010161D3
:102AC0002046FFF76BFBF00209D515F4801006D005
:102AD00020686FF4801101612046FFF763FBB002AC
:102AE00009D515F4001006D020686FF400110161BB
:102AF0002046FFF755FB700209D515F4800006D07B
:102B000020686FF4800101612046FFF74DFB300221
:102B10000CD515F4000009D021686FF4000220469E
:102B20000A6101B0BDE8F040FFF794BB01B0F0BD11
:102B3000704700007047000040F25051C2F200019F
:102B4000884218BF7047F0B581B02DED028B84B07C
:102B500040F27006C2F20006301DFEF76BF906F176
:102B60001000FEF767F906F11C00FEF763F906F1A5
:102B70002800FEF75FF9D6E90145D6E904C247F21D
:102B800030514FF6FF708D42C8BF2D1A376A8A4206
:102B9000C8BF121AF36A8F42C8BF3F1A8B42C8BF20
:102BA0001B1A00EE105A9FED7F1A02EE102A03EE58
:102BB000107A04EE103AB8EEC00AB8EEC22AB8EEA7
:102BC000C33AB8EEC44A20EE010A22EE012A23EEEF
:102BD000013A24EE011A9FED744A216820EE040A9E
:102BE00022EE042A23EE043A21EE041A9FED6F4AE6
:102BF0000020486280EE040A82EE042A83EE043A42
:102C000081EE041ADCF8001040F2F8074862F1691E
:102C1000C2F2000709684862B16A09684862B06098
:102C200070613062F06207F1280086ED030A86EDDC
:102C3000062A86ED093A86ED0C1A01F06DFB40F28A
:102C4000541496ED060AC2F20004204601F064FB1B
:102C500096ED090A04F1340001F05EFB40F2C46510
:102C600096ED0C0AC2F20005284601F055FB97EDDF
:102C70000C0AB5EE400AF1EE10FA07DDBDEEC00A0F
:102C800010EE101A06F14800002208E0B1EE400AEA
:102C9000BDEEC00A10EE102A06F14800002101F036
:102CA000EBFB94ED020AB5EE400AF1EE10FA09DAF8
:102CB000B1EE400ABDEEC00A10EE102A06F15C002B
:102CC000002106E0BDEEC00A10EE101A06F15C000D
:102CD000002201F0D1FB94ED0F0AB5EE400AF1EEAF
:102CE00010FA0BDAB1EE400ABDEEC00A40F2F8006D
:102CF00010EE102AC2F20000002108E0BDEEC00A6A
:102D000040F2F80010EE101AC2F20000002201F0AA
:102D1000B3FB95ED020AB5EE400AF1EE10FA09DABE
:102D2000B1EE400ABDEEC00A10EE102A07F1140001
:102D3000002106E0BDEEC00A10EE101A07F11400E3
:102D4000002201F099FBF06802F0CEFF0546B86A58
:102D50000E4602F0C9FF41EC180B606A02F0C4FF96
:102D600040F2F86441EC100BC2F2000410A12046BE
:102D70002A4633468DED008B8DED020BFDF736FBB9
:102D80002046FDF7CEFB82B240F23060C2F2000076
:102D9000214604B0BDEC028B01B0BDE8F04000F06C
:102DA00009BF00BF0000C842000070420000C344D9
:102DB000252E32662C252E32662C252E32660A00F0
:102DC0007047000090F88410012904BF022070476A
:102DD0002421C0F8881001680A680B6822F00052AC
:102DE00023F001030B60002343660A602021C0F832
:102DF000881080F884300020704700007047000081
:102E00007047000090F88420012A04BF0220704718
:102E1000B0B52422C0F888200268D0F864E0D2F867
:102E200000C01368BEF1000F23F001031360936824
:102E300023F0606341EA0301916019D093689168BF
:102E400045F6BC6E490FC0F6000E45F6C4651EF887
:102E50000140C0F60005695CC3F34263E400B4FBC3
:102E6000F1F11EF80340EB5CE500B5FBF3F301E084
:102E700001210123A0F86A102021A0F86830C2F8CF
:102E800000C0C0F88810002180F884100020B0BD78
:102E900090F88420012A04BF02207047B0B5242294
:102EA000C0F888200268D0F864E0D2F800C0136847
:102EB000BEF1000F23F001031360936823F0604319
:102EC00041EA0301916019D09368916845F6BC6EA0
:102ED000490FC0F6000E45F6C4651EF80140C0F665
:102EE0000005695CC3F34263E400B4FBF1F11EF832
:102EF0000340EB5CE500B5FBF3F301E001210123A6
:102F0000A0F86A102021A0F86830C2F800C0C0F80C
:102F10008810002180F884100020B0BD70470000A8
:102F2000704700007047000070B5026840F62F043B
:102F3000D369116896681C40202C0BD101F0200445
:102F400006F080552D1916D0416F61B3BDE8704071
:102F5000084700BF40F60F052B420CD00125C1F2F7
:102F6000000506EA050C40F22015C0F200450D40B0
:102F700015EB0C0524D1C46EDD0615D5012C13D13B
:102F800011F0100510D0102111629168490661D42A
:102F9000B0F85C10B0F85E20B0F85E30002B18BFBF
:102FA000914240F0518270BDDD0215D516F48005C6
:102FB00012D04FF480111162BDE87040FFF7B0BF2E
:102FC000DD0718BF11F4807540F020819D0706F0E1
:102FD000010E00F1278130E11A0606D501F08002CA
:102FE00006F40006921940F0AF825A0640F10281C1
:102FF00011F0400200F0FE80016851E8001F0268F5
:1030000021F0400142E80013DBB1016851E8001FE4
:10301000026821F0400142E8001393B1016851E8D1
:10302000001F026821F0400142E800134BB1016823
:1030300051E8001F026821F0400142E80013002B14
:10304000DAD12021C0F8881000218167BDE87040E6
:1030500000F024BED0F880100A685368B0F85C40D5
:1030600099B2002900F0B880A14280F0B580A0F8A4
:103070005E301168890600F1A38000BF016851E845
:10308000001F026821F4807142E80013E3B1016877
:1030900051E8001F026821F4807142E800139BB1DF
:1030A000016851E8001F026821F4807142E80013B2
:1030B00053B1016851E8001F026821F4807142E8B1
:1030C0000013002BDAD100BF016851E8021F02682B
:1030D00021F0010142E80213BBB3016851E8021F6D
:1030E000026821F0010142E8021373B3016851E85C
:1030F000021F026821F0010142E802132BB30168AC
:1031000051E8021F026821F0010142E80213002B7E
:10311000DAD11AE0016851E8021F026821F040018B
:1031200042E80213DBB1016851E8021F026821F096
:10313000400142E8021393B1016851E8021F02689E
:1031400021F0400142E802134BB1016851E8021F2F
:10315000026821F0400142E80213002BDAD120215D
:10316000C0F88C100021C166016851E8001F026898
:1031700021F0100142E80013DBB1016851E8001FA3
:10318000026821F0100142E8001393B1016851E890
:10319000001F026821F0100142E800134BB10168E2
:1031A00051E8001F026821F0100142E80013002BD3
:1031B000DAD1D0F8801004460846FDF753FE2046C9
:1031C00002210167B0F85C10B0F85E20891A89B25C
:1031D000BDE87040FFF712BE8C427FF4E4AE126887
:1031E00092067FF5E0AE02220267BDE87040FFF76D
:1031F00005BE00BF1A0240F1B38111F0804200F019
:10320000AF81BDE87040FFF789BE00BF01251562A0
:10321000D0F8905045F00105C0F890509D0706F099
:10322000010E0AD5BEF1000F07D002241462D0F8B7
:10323000904044F00404C0F890405C070AD5BEF109
:10324000000F07D004251562D0F8905045F0020514
:10325000C0F890501D070CD501F0200555EA0C056B
:1032600007D008251562D0F8905045F00805C0F841
:1032700090501D050BD511F0806508D04FF4006506
:103280001562D0F8905045F02005C0F89050D0F865
:103290009050002D3FF487AE9B060BD501F0200126
:1032A00006F08053C91805D0416F19B1044688470C
:1032B00022682046D0F89010926801F0280102F0B0
:1032C0004002891806D10446FFF72CFE0020C4F8FE
:1032D000900070BD016851E8001F026821F49071F0
:1032E00042E80013DBB1016851E8001F026821F4D5
:1032F000907142E8001393B1016851E8001F026821
:1033000021F4907142E800134BB1016851E8001FAD
:10331000026821F4907142E80013002BDAD14FF6D5
:10332000FE71CEF6FF7100BF026852E8022F0368FB
:103330000A4043E80226C6B1026852E8022F036839
:103340000A4043E8022686B1026852E8022F036869
:103350000A4043E8022646B1026852E8022F036899
:103360000A4043E80226002EDED1C16E012924D195
:10337000016851E8001F026821F0100142E80013C3
:10338000DBB1016851E8001F026821F0100142E83A
:10339000001393B1016851E8001F026821F0100189
:1033A00042E800134BB1016851E8001F026821F0A8
:1033B000100142E80013002BDAD12021C0F88C1054
:1033C0000021C166026841679168490640F1C480E6
:1033D000016851E8021F026821F0400142E802132F
:1033E000DBB1016851E8021F026821F0400142E8A8
:1033F000021393B1016851E8021F026821F04001F5
:1034000042E802134BB1016851E8021F026821F043
:10341000400142E80213002BDAD1D0F880100029D5
:1034200000F09A8044F64902C0F6000204460846BD
:103430008A63FDF74FFD00283FF4B5ADD4F8800056
:10344000816BBDE870400847891A00BF026852E8E6
:10345000002F036822F4907243E80026DEB1026870
:1034600052E8002F036822F4907243E8002696B1D8
:10347000026852E8002F036822F4907243E80026A5
:103480004EB1026852E8002F036822F4907243E8BC
:103490000026002EDAD14FF6FE72CEF6FF7200BF84
:1034A000036853E8023F0668134046E80235C5B199
:1034B000036853E8023F0668134046E8023585B1C9
:1034C000036853E8023F0668134046E8023545B1F9
:1034D000036853E8023F0668134046E80235002DB2
:1034E000DED12022C0F88C200022C266426700BFD5
:1034F000026852E8002F036822F0100243E8002619
:10350000DEB1026852E8002F036822F0100243E89F
:10351000002696B1026852E8002F036822F01002DC
:1035200043E800264EB1026852E8002F036822F0FB
:10353000100243E80026002EDAD1022289B2026787
:10354000BDE87040FFF75ABC816F00293FF42BADF6
:10355000BDE87040084700BFBDE87040FFF7E2BC1F
:10356000DA017FF520ADB1F1FF3FC8BF70BDBDE806
:103570007040FFF745BC000010B5D0B10446D0F84C
:10358000880028B9002084F88400204600F026F83E
:103590002420C4F888002068A16A026822F0010291
:1035A000026011B1204601F025F8204601F05CFBD5
:1035B00010B1012010BD00BF2168486820F4904080
:1035C0004860886820F02A008860086840F001029E
:1035D00020460A60BDE8104001F080B82DE9F041B6
:1035E00098B0044600201790CDE91500CDE91300EE
:1035F00002A84421FCF7B4FF206844F60001C4F29D
:10360000000188426ED044F60041C4F200018842B5
:1036100040F0D5800820029002A8FEF717F8002895
:1036200018BFFDF719FC41F24C00C4F20200C1685A
:1036300040F2080841F40021C160C168002601F48D
:103640000021019101990168C4F2020841F00401CE
:103650000160006813A900F00400019001984FF484
:1036600040601390022014900520179040F2004013
:10367000C4F6000000F58060CDE91566FDF7C0FDD9
:1036800040F2BC1508F12800C2F200051E21802777
:1036900085E843002846C5E90367C5E90566C5E92D
:1036A0000766FDF7ADFC002818BFFDF7D5FBC4F891
:1036B0008050AC6240F21C2508F13C00C2F20005CB
:1036C0001F21102285E8C7002846C5E90566C5E91F
:1036D0000766FDF795FC00284FF0340618BFFDF78C
:1036E000BBFB62E00420029002A8FDF7AFFF0028B8
:1036F00018BFFDF7B1FB41F24C00C4F20200C168F3
:1037000040F2080841F48021C160C168002601F43C
:103710008021019101990168C4F2020841F002017F
:103720000160006813A900F00200019001984FF4B5
:1037300040601390022014900720179040F2004040
:10374000C4F60000CDE91566FDF75AFD40F27C2570
:10375000C2F200051C208027C5E900802846C5E983
:103760000266C5E90476C5E906662E62FDF748FCE7
:10377000002818BFFDF770FBC4F88050AC6240F21F
:10378000DC2508F11400C2F200051D21102285E895
:10379000C7002846C5E90566C5E90766FDF730FCA0
:1037A0004FF0270608B1FDF757FB304600210022F5
:1037B000E567AC62FDF77CFE3046FDF767FE18B0AA
:1037C000BDE8F081D0F88C30202B0BD194460A460E
:1037D00000294FF0010118BFBCF1000F06D10846C7
:1037E000704700BF02210846704700BFB0B54FF0D8
:1037F000000EC0F86CE0036848F20004C4F2000454
:10380000A34202D05B681B0232D422218265A0F859
:103810005CC0C0F890E0C0F88C10D0F88030002B6D
:1038200050D044F63121C0F6000144F6953444F6F8
:10383000550E03F12C07C0F60004C0F6000E87E811
:103840001240016800259D632431044618466346F2
:10385000FDF762FC01462046A1B31021C0F890108C
:103860002021C0F88C100121BDE8B0400846704707
:10387000036853E8003F046843F0806344E8003184
:103880000029C2D0016851E8001F036841F080613F
:1038900043E80014002CB8D0016851E8001F036809
:1038A00041F0806143E80014002CAED0016851E87B
:1038B000001F036841F0806143E80014002CD7D159
:1038C000A3E700BF016929B3016851E8001F02683E
:1038D00041F4807142E80013E3B1016851E8001F30
:1038E000026841F4807142E800139BB1016851E81D
:1038F000001F026841F4807142E8001353B101686F
:1039000051E8001F026841F4807142E80013002B67
:10391000DAD100BF016851E8021F026841F00101DD
:1039200042E80213BBB3016851E8021F026841F08C
:10393000010142E8021373B3016851E8021F0268F3
:1039400041F0010142E802132BB3016851E8021F64
:10395000026841F0010142E80213002BDAD11AE0BB
:10396000016851E8021F026841F0400142E8021379
:10397000DBB1016851E8021F026841F0400142E8F2
:10398000021393B1016851E8021F026841F040013F
:1039900042E802134BB1016851E8021F026841F08E
:1039A000400142E80213002BDAD10021BDE8B0400B
:1039B0000846704740F29C51C2F20001884218BF8D
:1039C000704710B582B040F27004C2F20004214684
:1039D00011F8340BFDF79CF920B134341FCC00945E
:1039E00000F062F940F29C5040F27001C2F2000017
:1039F000C2F20001012202B0BDE81040FFF7E2BEB2
:103A0000704700002DE9F04381B00446D0F88800EB
:103A1000202809D100294FF0010018BF002A07D142
:103A200001B0BDE8F08300BF022001B0BDE8F08323
:103A30000020C4F8900021201D460E46C4F88800DE
:103A40001746FDF7BDFCA4F85470A4F85670A168A1
:103A50008146B1F5805F02D12069002866D03746E3
:103A60000020B4F856202168002A67D06A1C28D0AC
:103A7000002D53D0804600BFC86900060AD4FDF768
:103A80009FFCA0EB0900A84200F28480216808682E
:103A9000F2E700BF17B117F8010B04E038F8020B8A
:103AA00000276FF35F208862B4F856000138A4F84D
:103AB0005600B4F856000028DED13FE0CA6912066D
:103AC00009D4CA69120606D4CA6912065CBFCA695B
:103AD0005FEA0262F2D51FB117F8012B05E000BFC3
:103AE00030F8022B00276FF35F228A62B4F8562069
:103AF000013AA4F85620B4F85620002AE1D11DE07E
:103B000030F8022B00276FF35F228A62B4F8562048
:103B1000013AA4F85620B4F856207AB1CA691206C0
:103B200036D5002FECD017F8012BEEE700273046F2
:103B3000B4F856202168002A7FF498AFC86940067F
:103B40001ED42DB3681C14D1C86940062AD4C86994
:103B5000400627D4C869400624D4C86940064FF0FF
:103B60000000F1D50DE000BF20680168C069400683
:103B700018D4FDF725FCA0EB0900A842F4D909E010
:103B800000202021C4F8881001B0BDE8F08300BFF8
:103B9000FDF716FC03202021C4F8881001B0BDE811
:103BA000F08300BF00202021C4F8881001B0BDE8D8
:103BB000F0830000D0F88830202B09D194460029EA
:103BC0004FF0010218BFBCF1000F05D1104670473D
:103BD00002221046704700BFB0B5002221230165C4
:103BE000A0F854C0A0F856C0C0F89020C0F88830A3
:103BF000C36F2BB344F65505C0F6000544F6B13447
:103C000044F6614E5D630568C0F60004C0F6000E20
:103C1000C3E90B4E9A6305F1280204461846634631
:103C2000FDF77AFA0146204651B11021C0F89010F4
:103C30002021C0F888100122BDE8B040104670472E
:103C4000016840220A6200BF016851E8021F026851
:103C500041F0800142E80213DBB1016851E8021F24
:103C6000026841F0800142E8021393B1016851E813
:103C7000021F026841F0800142E802134BB1016863
:103C800051E8021F026841F0800142E80213002B54
:103C9000DAD10022BDE8B0401046704770470000FE
:103CA00070470000FEE7000080B52DED048B069AFA
:103CB000D2B2022A64D0012A36D0002A40F08C8089
:103CC0000A18C2EBC202081A5200C0EBC00000EE94
:103CD000102A4000B8EEC08A00EE100A40F2201010
:103CE000B8EEC09AC2F20000B0EE480A00F088FBBD
:103CF00040F25410C2F20000B0EE480A00F080FB1F
:103D000040F28810C2F20000B0EE490A00F078FBE1
:103D100040F2C460C2F20000B0EE490ABDEC048B70
:103D2000BDE8804000F06CBB40F2B800C2F2000079
:103D30004FF496714FF47A7200F09EFB40F2CC0083
:103D4000C2F200004FF47A714FF4967200F094FBC7
:103D500040F2F800C2F200004FF47A714FF496720C
:103D600000F08AFB40F20C10C2F200004FF4967192
:103D70004FF47A72BDEC048BBDE8804000F07CBB50
:103D800040F2B800C2F200004FF47A714FF496721C
:103D900000F072FB40F2CC00C2F200004FF49671CA
:103DA0004FF47A7200F068FB40F2F800C2F20000B3
:103DB0004FF496714FF47A7200F05EFB40F20C10F3
:103DC000C2F200004FF47A714FF49672BDEC048B8E
:103DD000BDE8804000F050BBBDEC048B80BD00000E
:103DE00080B582B041F24800C4F2020001680022AE
:103DF00041F004010160016801F0040101910199A1
:103E0000016841F0010101600068002100F001003B
:103E1000009000980B20FDF74BFB0B20FDF736FBC5
:103E20000C2000210022FDF743FB0C20FDF72EFBA8
:103E30000D2000210022FDF73BFB0D20FDF726FBA6
:103E40000E2000210022FDF733FB0E2002B0BDE85A
:103E50008040FDF71BBB00002DE9F04186B0002635
:103E600041F24C000596CDE90366CDE90166C4F246
:103E700002000168002241F02001016001680C2568
:103E800001F0200100910099016841F001010160F9
:103E9000016801F0010100910099016841F00201FF
:103EA0000160016801F0020100910099016841F090
:103EB0000401016000680C2100F0040000900098EB
:103EC0004FF09040FDF776FA40F20044C4F600044B
:103ED00020464CF2033100224CF20338FDF76AFA17
:103EE000019501AD01274FF090402946CDE90276BA
:103EF0000496FDF785F920462946CDE90187CDE9ED
:103F00000366FDF77DF906B0BDE8F08180B588B0A5
:103F100040F2883044F200020021C2F20000C4F2F4
:103F2000010240F2A3634FF0630C0791CDE9051144
:103F30000291C0E90023C0E9021CC0E904118161BB
:103F4000FEF78AF9002818BFFCF786FF4FF480506F
:103F5000049040F28830C2F2000004A9FEF7ACFAE7
:103F6000002818BFFCF778FF00200190039040F272
:103F70008830C2F2000001A9FEF718F9002818BF26
:103F8000FCF76AFF08B080BD80B540F2D43044F63B
:103F90000001C2F20000C4F2010100224FF6FF73DB
:103FA000C0E90012C0E90223C0E904228261FEF7E1
:103FB00053F9002808BF80BDBDE88040FCF74CBF26
:103FC00010B58CB040F23C3042F600410024C2F201
:103FD0000000C4F20101C0E9001401214FF6FF7294
:103FE000CDE90314CDE90514CDE9091403A9029420
:103FF000CDE90044C0E90242C0E904448461CDE94E
:1040000007440B94FEF75AFB002818BFFCF724FF67
:1040100040F23C30C2F200006946CDE9004402940F
:10402000FEF7C4F8002818BFFCF716FF0CB010BD4F
:1040300010B58CB040F220400024C2F200004FF0D6
:104040008041C0E9001401214FF6FF72CDE903144D
:10405000CDE90514CDE9091403A90194C0E9024290
:1040600004618461CDE907440B94FEF727FB002827
:1040700018BFFCF7F1FE40F22040C2F20000694692
:1040800000940294FEF792F8002818BFFCF7E4FEB3
:104090000CB010BD10B58CB040F26C4040F2004145
:1040A0000024C2F20000C4F20001C0E900140121A2
:1040B0004FF6FF72CDE90314CDE90514CDE90914DB
:1040C00003A90194C0E9024204618461CDE9074477
:1040D0000B94FEF7F3FA002818BFFCF7BDFE40F280
:1040E0006C40C2F20000694600940294FEF75EF84C
:1040F000002818BFFCF7B0FE0CB010BD10B58CB096
:1041000040F2B84040F600010024C2F20000C4F2C0
:1041100000014FF6FF72C0E90014C0E9024201211C
:1041200002220391CDE90421CDE9084103A90194BC
:1041300004618461CDE90644CDE90A44FEF7BEFA84
:10414000002818BFFCF788FE40F2B840C2F2000019
:10415000694600940294FEF729F8002818BFFCF77E
:104160007BFE0CB010BD000010B584B040F20450CE
:1041700041F200010024C2F20000C4F2000140F24A
:10418000E7330294102280E81600C3608461FEF7D2
:1041900063F8002818BFFCF75FFE40F20450C2F23B
:1041A000000001A901940394FEF700F8002818BF4D
:1041B000FCF752FE04B010BD10B584B040F2505070
:1041C00041F200410024C2F20000C4F20001632366
:1041D000029444F2672280E81600C3608461FEF70F
:1041E0003BF8002818BFFCF737FE40F25050C2F2EF
:1041F000000001A901940394FDF7D8FF002818BF1F
:10420000FCF72AFE04B010BD80B540F2306044F6E1
:104210000041C2F20000C4F2000100234FF00C0C78
:104220004FF4E13280E80E00C0E90333C0E905C372
:10423000C0E90733C0E90933FFF79EF9002818BF2A
:10424000FCF70AFE40F23060C2F200000021FEF7E7
:104250001FFE002818BFFCF7FFFD40F23060C2F2DD
:1042600000000021FEF7CEFD002818BFFCF7F4FD8A
:1042700040F23060C2F20000FEF7A4FD002808BF43
:1042800080BDBDE88040FCF7E7BD000080B540F28E
:104290009C5044F60001C2F20000C4F20001002369
:1042A0004FF00C0C4FF4165280E80E00C0E90333B7
:1042B000C0E905C3C0E90733C0E90933FFF75CF97A
:1042C000002818BFFCF7C8FD40F29C50C2F2000065
:1042D0000021FEF7DDFD002818BFFCF7BDFD40F210
:1042E0009C50C2F200000021FEF78CFD002818BF90
:1042F000FCF7B2FD40F29C50C2F20000FEF762FDF6
:10430000002808BF80BDBDE88040FCF7A5BD0000C7
:10431000FEE70000FEE7000090ED001A90ED052A90
:1043200090ED063A80ED010A90ED094A31EE400A1F
:1043300020EE021A23EE002A90ED0B3A32EE042A08
:10434000B4EE432A80ED030A80ED081AF1EE10FA6C
:1043500080ED092AC4BF80ED093AB0EE432A90ED02
:10436000043A90ED074A30EE433A90ED0C5A24EEB1
:10437000033A80ED040A31EE020A80ED0A3A33EE88
:10438000003AB4EE453AB0EE431AB1EE452AF1EEEA
:1043900010FAC8BFB0EE451AB4EE421AF1EE10FAA8
:1043A000B0EE410AB4EE453AB8BFB0EE420AF1EEC3
:1043B00010FA80ED023A07DCB4EE421AF1EE10FA80
:1043C000B8BF80ED020A704780ED020A7047000016
:1043D00081EE211A20EEA13A002180ED050A80ED40
:1043E000063A80ED0B2AC0ED0C2AC0E90811816263
:1043F000C0E90011C0E90211016180ED071A7047A0
:1044000080ED000A70470000704700002DE9F0477A
:10441000074640F20450DDF82880DDE908A9C2F221
:1044200000001C4615460E46FDF7B6FF3E807D8017
:104430007C60A7F808A0C7F80C90A7F81080BDE82A
:10444000F087000070B5054600880C468842686811
:1044500029894FF000024FF0000688BF0122FCF7C7
:10446000A9FF6888A04288BF0126E868298A3246E9
:10447000BDE87040FCF79EBF01804280704700009D
:1044800070470000FCF7A2BF4EF68850CEF2000045
:10449000016841F4700101607047000040F204506F
:1044A000C2F20000FEF75EBA40F25050C2F20000C5
:1044B000FEF758BA40F2FF7C0268C4F2000C604577
:1044C00024DD40F60003C4F20003984227D043F2F3
:1044D0000043C4F20103984221D042F60043C4F2E3
:1044E000010398421BD043F2FF33C4F20103984208
:1044F0001FDC604530DCB0F1804F47D040F2004314
:10450000C4F20003984241D044E000BFB0F1804FB4
:1045100005D040F20043C4F200039842E3D14B6857
:1045200022F070021A4343F2FF33C4F201039842AF
:10453000DFDD44F2FF33C4F2010398421ADC43F298
:104540000043C4F20103984220D044F20003C4F2B5
:10455000010398421AD01DE040F60003C4F20003A4
:10456000984213D042F60043C4F2010398420DD0A2
:1045700010E000BF44F60003C4F20103984205D0E6
:1045800044F20043C4F20103984203D1CB6822F401
:1045900040721A4380B54B6922F0800E8A6843EA64
:1045A0000E03D1F800C00360C262A0F18042A2F500
:1045B00096324FEAB222072AC0F828C0BDE88040F0
:1045C00007D8012303FA02F212F0E50F1CBF0969B4
:1045D0000163012141610169C90708BF7047016991
:1045E00021F001010161704740F23060C2F2000029
:1045F000FEF79ABC816A0A070CD4CA0715D18A074C
:104600001ED44A0727D4CA0630D48A0639D44A06AB
:1046100042D457E00268D0F838C0536823F400430E
:1046200043EA0C035360CA07E9D00268D0F82CC0F3
:10463000536823F4003343EA0C0353608A07E0D540
:104640000268D0F830C0536823F4803343EA0C0387
:1046500053604A07D7D50268D0F834C0536823F4B2
:10466000802343EA0C035360CA06CED50268D0F813
:104670003CC0936823F4805343EA0C0393608A069A
:10468000C5D50268D0F840C0936823F4005343EACC
:104690000C0393604A0615D5D0F800C0436CDCF8D3
:1046A0000420B3F5801F22F4801242EA0302CCF802
:1046B000042007D1DCF80420836C22F4C0021A43E2
:1046C000CCF80420090658BF70470168C06C4A68DE
:1046D00022F400221043486070470000B0B582B059
:1046E00004460020C4F89000FCF76AFE21680546E5
:1046F0000A68120737D56FF07E4C20464FF4001140
:1047000000222B46CDF800C000F0FAFB50B300BFEA
:10471000206850E8000F216820F0800041E8000286
:10472000DAB1206850E8000F216820F0800041E8ED
:10473000000292B1206850E8000F216820F080004C
:1047400041E800024AB1206850E8000F216820F0DB
:10475000800041E80002002ADAD1032020218822CB
:104760006BE000BF2168086840075DD56FF07E4CA4
:1047700020464FF4800100222B46CDF800C000F007
:10478000BFFB002850D000BF206850E8000F216810
:1047900020F4907041E80002BAB3206850E8000F9E
:1047A000216820F4907041E8000272B3206850E85C
:1047B000000F216820F4907041E800022AB32068BD
:1047C00050E8000F216820F4907041E80002002AB0
:1047D000DAD11AE0206850E8020F216820F00100C9
:1047E00041E80202DAB1206850E8020F216820F0A7
:1047F000010041E8020292B1206850E8020F2168EE
:1048000020F0010041E802024AB1206850E8020F9E
:10481000216820F0010041E80202002ADAD10320D9
:1048200020218C2209E000BF2020C4F88800C4F8B1
:104830008C00002170220020E166A150002184F844
:10484000841002B0B0BD0000806A0021A0F85E10A4
:10485000FEF768BB806A0268D0F88830D0F88CC058
:104860009168090653D5212B51D10021A0F856108B
:10487000016851E8001F026821F0C00142E80013FE
:10488000BBB3016851E8001F026821F0C00142E893
:10489000001373B3016851E8001F026821F0C001E2
:1048A00042E800132BB3016851E8001F026821F0B1
:1048B000C00142E80013002BDAD11AE0016851E888
:1048C000021F026821F4000142E80213DBB1016813
:1048D00051E8021F026821F4000142E8021393B17B
:1048E000016851E8021F026821F4000142E8021346
:1048F0004BB1016851E8021F026821F4000142E84F
:104900000213002BDAD12021C0F8881002689168C8
:10491000490640F18480BCF1220F40F080800021E4
:10492000A0F85E10016851E8001F026821F4907140
:1049300042E80013DBB1016851E8001F026821F46E
:10494000907142E8001393B1016851E8001F0268BA
:1049500021F4907142E800134BB1016851E8001F47
:10496000026821F4907142E80013002BDAD14FF66F
:10497000FE7CCEF6FF7C00BF026852E8022F03687F
:1049800002EA0C0243E80221D9B1016851E8021F92
:10499000026801EA0C0142E8021393B1016851E890
:1049A000021F026801EA0C0142E802134BB10168E0
:1049B00051E8021F026801EA0C0142E80213002BD1
:1049C000DAD1C16E012924D1016851E8001F0268C3
:1049D00021F0100142E80013DBB1016851E8001F2B
:1049E000026821F0100142E8001393B1016851E818
:1049F000001F026821F0100142E800134BB101686A
:104A000051E8001F026821F0100142E80013002B5A
:104A1000DAD12021C0F88C100021C1664167D0F89E
:104A2000901041F01001C0F89010FEF77BBA000022
:104A30000168806A0968890600F1A1800021A0F858
:104A40005E1000BF016851E8001F026821F4807108
:104A500042E80013E3B1016851E8001F026821F445
:104A6000807142E800139BB1016851E8001F0268A1
:104A700021F4807142E8001353B1016851E8001F2E
:104A8000026821F4807142E80013002BDAD100BFE4
:104A9000016851E8021F026821F0010142E8021397
:104AA000BBB3016851E8021F026821F0010142E82E
:104AB000021373B3016851E8021F026821F001017B
:104AC00042E802132BB3016851E8021F026821F08B
:104AD000010142E80213002BDAD11AE0016851E823
:104AE000021F026821F0400142E80213DBB10168B5
:104AF00051E8021F026821F0400142E8021393B11D
:104B0000016851E8021F026821F0400142E80213E7
:104B10004BB1016851E8021F026821F0400142E8F0
:104B20000213002BDAD12021C0F88C10C16E0129AC
:104B300025D100BF016851E8001F026821F0100173
:104B400042E80013DBB1016851E8001F026821F060
:104B5000100142E8001393B1016851E8001F026898
:104B600021F0100142E800134BB1016851E8001F29
:104B7000026821F0100142E80013002BDAD1002175
:104B80000167C16E012918BFFEF714BFB0F85C10B1
:104B9000FEF734B9806A01210167C16E012918BF8F
:104BA000FEF72EBFB0F85C104908FEF727B90000E9
:104BB0000168806A0968890648BFFFF76FB800215D
:104BC000A0F85610016851E8021F026821F0800128
:104BD00042E8021383B3016851E8021F026821F022
:104BE000800142E802133BB3016851E8021F0268EA
:104BF00021F0800142E80213F3B1016851E8021F7D
:104C0000026821F0800142E80213002BDAD113E0A0
:104C1000016851E8001F026841F0400142E80013BA
:104C2000002B08BF7047016851E8001F026841F07F
:104C3000400142E8001393B1016851E8001F026887
:104C400041F0400142E800134BB1016851E8001FF8
:104C5000026841F0400142E80013002BD8D17047B0
:104C6000806AFFF71DB8000070B5054605F108041D
:104C70001ECC0068194341EA0403EE69046846F655
:104C8000F311CCF6FF7121401943314301604168B3
:104C900048F2000C21F4405111434160AA69C4F26A
:104CA000000C60451CBF296A0A4381684FF2FF432C
:104CB000C1F2FF13194011438160C16AD5F824E0A5
:104CC00021F00F0141EA0E01C16244F6FF31C4F246
:104CD000000188424FF0100314DD44F60041C4F295
:104CE0000001884222D0604528D043F60001C4F27A
:104CF0000101884238D141F28801C4F202010B68F7
:104D00007BA22DE044F20041C4F2000188421DD094
:104D100044F60001C4F20001884225D141F2880125
:104D2000C4F2020109680B0916E000BF41F28801D4
:104D3000C4F2020109688B090EE000BF41F288014C
:104D4000C4F2020109688B0A06E000BF41F2880143
:104D5000C4F2020109688B0845F6AC62C0F6000295
:104D600003F0030152F82130604542F20040C0F2E6
:104D7000F40015D0B6F5004F22D1082B4FF00101F9
:104D800000F2AD80DFE803F0065C74AB64ABABAB64
:104D9000720000BFFCF712FF002840F05D809AE02F
:104DA000082B4FF0010100F29A80DFE803F005982C
:104DB00025981B9898982300FCF700FFB0B98AE06B
:104DC000082B4FF0010100F28A80DFE803F0053D77
:104DD0006F88498888886D00FCF7F0FE002842D172
:104DE00079E000BFFCF716FF002874D0D5F824E066
:104DF00002E000BF4FF4004045F69461C0F60001A8
:104E000031F81E106A68B0FBF1F002EB42018842F3
:104E10004FF0010163D31303984260D8010E0002E2
:104E200010EB520041F100010023FBF767FA4FF647
:104E30000052A0F54071C0F20F02914249D34DE0FB
:104E4000FCF7D2FE40B946E0FCF7CEFE58B942E08E
:104E5000FCF7E0FE00283ED0D5F824E008E000BFD3
:104E6000FCF7D8FEB8B3D5F824E01FE04FF40040BB
:104E700045F69461C0F6000131F81E106A68B0FB77
:104E8000F1F0510801EB4000B0FBF2F04FF6EF7289
:104E9000A0F11001914221D84FF6F0710140C0F30A
:104EA0004200084415E000BF4FF4004045F694610D
:104EB000C0F6000131F81E104FF6EF72B0FBF1F0B2
:104EC000696800EB5100B0FBF1F0A0F110019142D4
:104ED00004D82968C860002101E000BF01214FF01B
:104EE0000110A866002208466A67AA6770BD00BF65
:104EF00001000000040000000200000008000000A3
:104F00002DE9F041804600681546C2690E46114001
:104F1000891BB1FA81F149098D4223D1069C2CB33A
:104F2000611C29D1C1693140891BB1FA81F149095C
:104F30008D4217D1C1693140891BB1FA81F149090C
:104F40008D420FD1C1693140891BB1FA81F1490904
:104F50008D4207D1C1693140891BB1FA81F14909FC
:104F60008D42DFD00020BDE8F08100BFFCF728FAB9
:104F70000320BDE8F08100BF1F4607E0C069304054
:104F8000801BB0FA80F040098542EBD1FCF718FA9B
:104F9000C01BA04200F2AE80D8F8000001684907AB
:104FA000ECD5402EEAD0802EE8D0C169090700F187
:104FB000A580C1690905E1D54FF400610162D8F807
:104FC000000050E8000FD8F8001020F4907041E87D
:104FD00000020AB3D8F8000050E8000FD8F800101B
:104FE00020F4907041E80002B2B1D8F8000050E817
:104FF000000FD8F8001020F4907041E800025AB178
:10500000D8F8000050E8000FD8F8001020F4907095
:1050100041E80002002AD2D14FF6FE70CEF6FF70B2
:10502000D8F8001051E8021FD8F80020014042E8EB
:105030000213F3B1D8F8001051E8021FD8F800208D
:10504000014042E80213A3B1D8F8001051E8021F52
:10505000D8F80020014042E8021353B1D8F80010FC
:1050600051E8021FD8F80020014042E80213002B4B
:10507000D6D1D8F86C0001282CD1D8F8000050E81F
:10508000000FD8F8001020F0100041E800020AB329
:10509000D8F8000050E8000FD8F8001020F01000F9
:1050A00041E80002B2B1D8F8000050E8000FD8F88B
:1050B000001020F0100041E800025AB1D8F80000BA
:1050C00050E8000FD8F8001020F0100041E800026E
:1050D000002AD2D120200021C8F88C00C8F86C101A
:1050E000C8F87410C8F89000032088F88410BDE850
:1050F000F08100BF0320BDE8F08100BF08210162FC
:10510000D8F8000050E8000FD8F8001020F4907094
:1051100041E800020AB3D8F8000050E8000FD8F8C0
:10512000001020F4907041E80002B2B1D8F80000FD
:1051300050E8000FD8F8001020F4907041E8000209
:105140005AB1D8F8000050E8000FD8F8001020F449
:10515000907041E80002002AD2D14FF6FE70CEF6E0
:10516000FF70D8F8001051E8021FD8F80020014065
:1051700042E80213F3B1D8F8001051E8021FD8F842
:105180000020014042E80213A3B1D8F8001051E812
:10519000021FD8F80020014042E8021353B1D8F8AA
:1051A000001051E8021FD8F80020014042E8021325
:1051B000002BD6D1D8F86C0001282CD1D8F80000EB
:1051C00050E8000FD8F8001020F0100041E800026D
:1051D0000AB3D8F8000050E8000FD8F8001020F00B
:1051E000100041E80002B2B1D8F8000050E8000F0A
:1051F000D8F8001020F0100041E800025AB1D8F8A9
:10520000000050E8000FD8F8001020F0100041E82E
:105210000002002AD2D12020C8F88C0000200821EA
:10522000C8F86C00C8F87400C8F8901088F88400BA
:105230000120BDE8F081000040F29C50C2F2000065
:10524000FDF772BEFEE7000096B0FCF7CDF8002433
:1052500000200E94CDE90C44CDE90A44FCF764F932
:10526000012008904FF48030099002200325552139
:105270000F90CDE91050CDE91210CDE9140008A827
:10528000FCF70AFD20B1EFF3108072B6FEE700BF15
:105290000F20CDE9030503A80421CDE905440794B7
:1052A0004FF00409FCF708FB20B1EFF3108072B651
:1052B000FEE700BFFEF7D0FDFEF792FDFEF780FE91
:1052C000FEF7B6FEFEF7E6FEFEF718FFFEF71EFE3F
:1052D000FEF74AFFFEF770FFFEF756FEFEF7D6FF19
:1052E000FEF792FF6F20099046F24850C6F66C40D8
:1052F00008AC08902046FBF714F982B240F2306007
:10530000C2F2000021464FF0FF33FEF77BFBFBF7B4
:10531000F1FC40F27008C2F2000840F23C3108F1A2
:105320000400C2F20001FBF78BFD40F2B84108F126
:105330001000C2F20001FBF783FD40F26C4108F15E
:105340001C00C2F20001FBF77BFD40F2204108F196
:105350002800C2F20001FBF773FD40F2F80A9FED4E
:105360005B8A9FED5B9A9FED5CAAC2F2000A9FEDFB
:10537000592A0AF12800B3EE0B0AF0EE480AB0EE03
:10538000481AF0EE491AF0EE4A2AFFF721F840F2E7
:1053900054159FED52BAC2F20005B2EE040A284637
:1053A000F0EE480AB0EE481AF0EE491AB0EE4B2A79
:1053B000F0EE4A2AFFF70CF805F13400B0EE480A87
:1053C000F0EE480AB0EE481AF0EE491AB0EE4B2A59
:1053D000F0EE4A2AFEF7FCFF40F2C460C2F2000081
:1053E000B0EE480AF0EE480AB0EE481AF0EE491A5C
:1053F000B0EE4B2AF0EE4A2AFEF7EAFF40F2505098
:10540000C2F20000FDF70EF840F200454FF40040F4
:10541000C4F600054FF4804108F14806009102905F
:105420003046002100222B460195FEF7EFFF4FF496
:1054300080704FF4007108F15C07009102903846CB
:10544000002100222B460195FEF7E0FF01200224F7
:10545000CDE900055046002100222B460294FEF7BC
:10546000D5FF4FF090400AF114050824CDE90090D3
:105470002846002100224FF090430294FEF7C6FF19
:1054800040F29C50C2F2000041460122FEF79AF918
:1054900040F20454C2F200042068406A81B23046EF
:1054A000FEF7D0FF2068406A81B23846FEF7CAFF97
:1054B0002068406A81B25046FEF7C4FF2068406A07
:1054C00081B22846FEF7BEFFE6E700BF00000000FD
:1054D0000AD7233C00007A4400C0794400002F44DE
:1054E0005FEA400C08BF91F0000F4FEA8C234FEAAF
:1054F000C12243EA51514FEA1C5018BF00F5F04059
:105500004FEA300018BF41F000415FEA6C5C00F0E8
:105510002980BCF1FF3F08BF40F080407047130C6A
:1055200006BF12044FF0100C4FF0000C130E04BF16
:1055300012020CF1080C130F04BF12010CF1040C41
:10554000930F04BF92000CF1020CD30F04BF520062
:105550000CF1010C11464FF00002A0F11F00A0EB6E
:105560000C00704711F0004F08BF704731F0004148
:105570003FF4D5AF0B0C06BF09044FF0100C4FF0F1
:10558000000C0B0E04BF09020CF1080C0B0F04BF3A
:1055900009010CF1040C8B0F04BF89000CF1020C03
:1055A000CB0F04BF49000CF1010CCCF1200322FA0F
:1055B00003F341EA030102FA0CF2A0EB0C0000F144
:1055C0000100704723F07F4720F07F4C80EA030002
:1055D00000F00040ACEB070303F57C5303F1FF033D
:1055E0002DE9804909B44FEA144324EA03484FEAFD
:1055F000154B25EA0B4E0FF2042606EB13273E78D7
:1056000003FB0667C7F5000707FB06F64FEAD64619
:1056100006F102064FEA543707FB066CCCF1005C3A
:105620004FEA1C472CEA074C0CFB06F507FB06F477
:1056300004EB15464FEA961649085FEA320234BF7A
:1056400000204FF000404FEAD13706FB07FC4FEA3D
:105650001C4C0CFB0BF7D21B03FB0CF761EB070197
:105660000CFB0EF7B0EB074072EB17420CFB08F790
:1056700034BFA2EB0742B2EB074261EB17414FEA9E
:105680000C444FEA910706FB07FC4FEA1C4C0CFB4D
:105690000BF7B0EBC74072EB573203FB0CF734BF8C
:1056A000A2EBC742B2EBC74261EB57310CFB0EF7DE
:1056B000B0EBC70072EB57720CFB08F734BFA2EBDC
:1056C000C702B2EBC70261EB57714FEA816141EA51
:1056D00092114FEA826242EA90124FEA806004EB34
:1056E000CC04039F4FEAD13706FB07FC4FEA1C4C62
:1056F0000CFB0BF7D21B03FB0CF761EB07010CFB58
:105700000EF7B0EB074072EB17420CFB08F734BF03
:10571000A2EB0742B2EB074261EB17414FEA8C550F
:1057200004EB9C244FEA910706FB07FC4FEA1C4C54
:105730000CFB0BF7B0EBC74072EB573203FB0CF7D7
:1057400034BFA2EBC742B2EBC74261EB57310CFB4F
:105750000EF7B0EBC70072EB57720CFB08F734BFC3
:10576000A2EBC702B2EBC70261EB57714FEA81614E
:1057700041EA92114FEA826242EA90124FEA806057
:1057800015EB4C2544F100044FEAD13706FB07FC2A
:105790004FEA1C4C0CFB0BF7D21B03FB0CF761EB25
:1057A00007010CFB0EF7B0EB074072EB17420CFB46
:1057B00008F734BFA2EB0742B2EB074261EB174197
:1057C0004FEA813141EA92414FEA823242EA904205
:1057D0004FEA80304FEA0C7615EB1C1544F10004BB
:1057E00048EA03434EEA0B484FF0000EB2EB080CB8
:1057F00071EB030724BF624639464EEB0E0E4FF0A5
:10580000000B0018524149414BEB0B0BB2EB080C5B
:1058100071EB03077BF1000B24BF624639464EEB68
:105820000E0E4FF0000B0018524149414BEB0B0B91
:10583000B2EB080C71EB03077BF1000B24BF62464F
:1058400039464EEB0E0E51EA020718BF46F001062C
:1058500016EB0E7655F1000254F1000103D5BDE8B8
:105860008901BDE80088BDE88901BDE80048B61996
:10587000524141EB0101A3F10103704780807F7E1B
:105880007D7C7B7A797877767675747372717170B6
:105890006F6E6E6D6C6C6B6A6A6968686766666568
:1058A0006464636362616160605F5F5E5E5D5D5CF6
:1058B0005C5B5B5A5A595958585757565655555567
:1058C0005454535352525251515050504F4F4F4EC7
:1058D0004E4D4D4D4C4C4C4B4B4B4A4A4A49494915
:1058E0004848484747474746464645454544444457
:1058F0004443434343424242424141419C46002B80
:1059000030D477002BD04FEA37071CB503B44FF0E3
:1059100010004FF01001BAF1000F06D0BCF1000FDB
:10592000DCBF40F0080040F008014FF000000FBC61
:10593000BDE810400BF1010BBBF1010F08BF5FEA9E
:10594000170722BF12F1010211F101014FF00041CE
:1059500043F1000300F0004043EA00007047F9D330
:105960005708D0E746EA06464FEA164613F1400FBD
:105970001FDD13F1200FDFBF16430A46002120333D
:105980005B42BED0C3F1200746EA06464FEA164600
:1059900002FA07F746EA070622FA03F2C3F12007E4
:1059A00001FA07F742EA070221FA03F14FF0000378
:1059B000A7E746EA020646EA06464FEA164646EAE0
:1059C0000106BCBF46EA0646360C4FF000034FF016
:1059D00000024FF0000194E72DE9804C70B49A4624
:1059E000934691E8380007C831EA400C48BF34EAD2
:1059F000430C03D5FFF7E6FDFFF780FFF0BCBDE8E1
:105A0000008C2DE9804C70B49A46934691E838009A
:105A100007C810F0804F08BF13F0804F03D100F08B
:105A200005F8FFF76BFFF0BCBDE8008C20F07F4766
:105A300023F07F4C80EA030000F0004007EB0C03EA
:105A4000A3F57C53A3F1FE0392F0000F00F0B380A6
:105A500095F0000F00F077802DE901494FEA1140E1
:105A600021EA00484FEA144624EA064700FB06FCF8
:105A700008FB06F607FB08F818EB06484CEB164C3B
:105A800000FB07F718EB07484CEB17404FEA124BA7
:105A900022EA0B4E4FEA154625EA06470BFB06FCA9
:105AA0000EFB06F607FB0EFE1EEB064E4CEB164CED
:105AB0000BFB07F71EEB074E4CEB174B18EB0B08D5
:105AC00040F1000018EB0E0B58EB000840F100000D
:105AD0008F1A4FF000014FF000063CBFC943661B10
